8=FIX.4.2|9=287|35=8|49=INCA42|56=STERLINGEQTYHUB|52=20230808-07:49:36.253|34=116|128=TCRI|37=1230807000064626|150=E|39=E|20=0|60=20230808-07:49:36.253|40=2|54=5|38=3000|44=31.75|55=BAC|47=A|21=1|59=0|1=OCBINS002|14=0|6=0.00|11=STE-REPL-342222508|41=STE-SHORT-342222506|32=0|31=0.00|17=0808208|151=3000|10=185|

8=FIX.4.2|9=287|35=8|49=INCA42|56=STERLINGEQTYHUB|52=20230808-07:49:36.254|34=117|128=TCRI|37=1230807000064626|150=5|39=5|20=0|60=20230808-07:49:36.254|40=2|54=5|38=1000|44=31.75|55=BAC|47=A|21=1|59=0|1=OCBINS002|14=0|6=0.00|11=STE-REPL-342222508|41=STE-SHORT-342222506|17=0808209|151=1000|32=0|31=0.00|10=153|